:100CE700537765657020205374617274203D2031FD
:100CF7000D0A005377656570202053746F70203D8F
:100D070020310D0A006E65656453746F70507573FA
:100D170068203D20310D0A006E65656453746F705D
:100D270050756C6C203D20310D0A0073706F727422
:100D3700436C617373203D202769273B0D0A0073BD
:100D4700706F7274436C617373203D20276927208D
:100D57002020676F2020746F20303B0D0A00312C54
:100D6700312C253033640D0A00312C322C253033D9
:100D7700640D0A00312C332C253033640D0A003101
:100D87002C342C253033640D0A0048656C6C6F20B9
:100D9700576F726C640D0A0048656C6C6F20576F53
:100DA700726C6420203173202053656E636F6E640C
:0A0DB7004E756D3A2564210D0A0007
:10130500C10B015A00026D0000015D05015F050278
:101315005B00000273000001770002700000C10C41
:10132500C10AC10902600000017201C10D016F000F
:0C133500017600015E00016C6901756921
:0A14CE0075A15575A1AA75A1FF22B2
:0E149A00EF4E600905A1EF1F70F61E80F322D1
:04143C007F0A7E00A5
:10144000AD07AC06ED4C600E7FE87E0312149AEDFA
:071450001D70F11C80EE226B
:0D14A80043C60143C40843C50C43CE1022C7
:1010F600C29FD29EC29DC2CDC2CC438780E47513E7
:1011060082F512F511F5107B0AFAF9F8AF13AE1253
:10111600AD11AC10120616AF038F14AF13AE12AD9D
:1011260011AC10E47B0AFAF9F81206168F138E1228
:101136008D118C10E514C394054011EF2401F513AD
:10114600E43EF512E43DF511E43CF510E589540F53
:101156004420F58943C9A0758DF3D28ED299D29CCD
:011166002266
:080003003098FDC298AF99226C
:0814D8008F993099FDD2992291
:0D14B50075CB3C75CAB0D2ADD2AFD2CA2201
:03002B000213427B
:10134200C0E0C0D00577E577B40A1475770005715F
:10135200E57170020570D20C20E004D20AD209E5D0
:1013620071B4E80BE570B40306757000757100C2C4
:06137200CFD0D0D0E03224
:061167008B238A24892578
:10116D007535007536007537268B388A39893A857D
:10117D00353B85363C85373D7B007A0079781213F7
:10118D00AC753500753600753700E4FEEEC39F5023
:10119D000F200EFDD20E74782EF8E6F5990E80EC28
:1011AD00200EFDD20E75990D200EFDD20E75990AE9
:0F11BD007E007F467D007B007A0079780206EC89
:03148A007F14FECE
:0D148D00EF4E600800EF1F70F71E80F42284
:101457007C64EF4E60131CEC60087D0A1DED60F69E
:0914670080FAEF1F70EC1E80E911
:011470002259
:1011CC00E55E6401705BC292C293C291C2907F14BF
:1011DC00FE121457308447D2A3C2A27BFF7A0C793B
:1011EC00E71211677F887E131214577BFF7A0C79F4
:1011FC00FA121167C2A3C2A27F147E00121457D236
:10120C00A0C2A1D2843084127F0A7E001214577BB4
:10121C00FF7A0D790C12116780EBC2A0C2A1E4F524
:02122C005E2240
:10137800E55E6402702DC292C293C291C29030851C
:101388001FC2A0D2A1D2853085127F0A7E00121416
:10139800577BFF7A0D791F12116780EBC2A0C2A19B
:0413A800E4F55E22E8
:10127C00E55A6008E4F55A7E037F2022E4F56DF50B
:10128C006EAF8CEF2445FFEFFEAD8AED24EFFDE44D
:10129C0034FFCD2400F56EED3EF56DFCAD6EE41221
:1012AC0001397B297A5C79EF783F12002E1201729A
:0712BC007C007D6412058532
:0112C3002208
:03000B00020020D0
:03002000055A324C
:10000E00D2827F147E0012148DC282758CBB758ACB
:02001E001122AD
:0C14C200438901D2A9D2B9C282C28C2297
:10140100C29FD29EC29D75892043878043C9A07522
:0F1411008DB2D28ED29CD2ACD2AFD299D2BC22A5
:0200260080FE5A
:10122E008F22E522B43117ED249F24F75002800C53
:10123E008D75857060857161E4F56F22802CE522D5
:10124E00B4320EED249E6006047022D20B22C20B25
:10125E0022E522B43417ED249E600A04700C7575D5
:0E126E0069755E0122755E0280007575692249
:0300230002107652
:10107600C0E0C0F0C083C082C0D075D008309904EB
:10108600C299C20E30985E859972E572B42305D274
:101096000D757600300D0774622576F8A672E57632
:1010A6006403703D74622576F8E6642E701A745FE8
:1010B6002576F8E6B4231174602576F8E6FF7461A8
:1010C6002576F8E6FD12122E7576007E007F0A7DE3
:1010D600007B007A0079621206ECC20D75722F80D1
:1010E600020576C298D0D0D082D083D0F0D0E0323C
:0714E00043BA0F43BC0F22C9
:100B8700C2CAD3E5719561E57095604025E5719519
:100B970061FFE5709560FED3EF9403EE9400401279
:100BA7007BFF7A0D793212116775756985706085DB
:100BB7007161C3E5719561E5709560502EE571240B
:100BC700E8FFE5703403FEC3EF9561FFEE9560FE25
:100BD700D3EF9403EE940040127BFF7A0D7946120F
:100BE7001167757569857060857161D2CAE575B5DC
:100BF7006C02805B85756CC292C293C291C2907F72
:100C0700327E00121440E56CB4690AC292C293C2E4
:100C170091C290803AE56CB4610AD292C293D291A4
:100C2700C290802BE56CB4620AC292D293C291D271
:100C370090801CE56CB4630AC292C293D291C290B1
:100C4700800DE56CB4640DD292C293C291C2907FBD
:100C5700C8020CE1E56CB4651BD292C293D291C273
:100C6700907F647E00121440D292C293C291C290C8
:100C77007F648066E56CB46617D292C293D291C244
:100C8700907F647E00121440C292C293D291801A60
:100C9700E56CB4671BC292D293C291D2907F647EF7
:100CA70000121440C292D293C291C2907F64802AEC
:100CB700E56CB4681BC292D293C291D2907F647ED6
:100CC70000121440C292C293C291D2907F64800AEC
:100CD700C292C293C291C2907FC87E001214402272
:1014710053C4F743C40453BCEF43BC2053C4FE43DD
:09148100C40253BABF43BA802231
:100FEE00755D03E4F55FF55BF55C75730375742051
:100FFE00E55DD394004050155D758CBB758A11E488
:10100E00F55AD28212148AC2823083FDD28C30837A
:10101E0006E55A60F9C28CC28CE55A6005E4F55AB1
:10102E0080CE12127C8E738F74C3E574942CE5738C
:10103E009401500E055FE574255CF55CE573355B38
:10104E00F55B12143C80A9E55FD394004019E55F6F
:10105E00FD7C00AE5BAF5C1205858E268F277BFF75
:08106E007A0D79651211672269
:100F6500755D03E4F55FF55BF55C757303757420DA
:100F7500AF5D155DEF6051758CBB758A11E4F55A4F
:100F8500D2A512148AC2A530A4FDD28C30A406E5E0
:100F95005A60F9C28CC28CE55A600812143CE4F51B
:100FA5005A80CD12127C8E738F74C3E574942CE530
:100FB500739401500E055FE574255CF55CE57335AA
:100FC5005BF55B12143C80A8E55FD394004019E5FE
:100FD5005FFD7C00AE5BAF5C1205858E268F277B9F
:090FE500FF7A0D797012116722E8
:100DC100755D03E4F55FF55BF55C75730375742080
:100DD100AF5D155DEF6054758CBB758A11E4F55AF2
:100DE100D2817F14FE12148DC2813080FDD28C30ED
:100DF1008006E55A60F9C28CC28CE55A600812146B
:100E01003CE4F55A80CA12127C8E738F74C3E57468
:100E1100942CE5739401500E055FE574255CF55C37
:100E2100E573355BF55B12143C80A5E55FD3940057
:100E31004019E55FFD7C00AE5BAF5C1205858E2637
:0C0E41008F277BFF7A0D797B121167224E
:100E4D00755D03E4F55FF55BF55C757303757420F3
:100E5D00AF5D155DEF6054758CBB758A11E4F55A65
:100E6D00D2977F14FE12148DC2973096FDD28C301E
:100E7D009606E55A60F9C28CC28CE55A60081214C8
:100E8D003CE4F55A80CA12127C8E738F74C3E574DC
:100E9D00942CE5739401500E055FE574255CF55CAB
:100EAD00E573355BF55B12143C80A5E55FD39400CB
:100EBD004019E55FFD7C00AE5BAF5C1205858E26AB
:0C0ECD008F277BFF7A0D798612116722B7
:10142000300B18C2CA200903D2CA22C209D2CA127A
:0C1430000FEE120F65120DC1120E4D22BE
:1012C4001214E01214711214011214C27F147E005D
:1012D4001214401214B57BFF7A0D79911211673004
:1012E4000A117BFF7A0D799F85702685712712116B
:1012F40067C20A121420120B871211CC12137880C1
:01130400DE0A
:10002E00EC4D6011E8497017ED33EC3304600DE4CC
:10003E00FCFFFEFD22E933E8330470F80201DE1204
:10004E0001A958046009E4CC248150062850090205
:10005E0001E82840030201E5C0E0EB4A7044B98094
:10006E0006D0E0FB0201D4EF4E701CBD8008EBFF02
:10007E00EAFEE9FD80EBE98DF0A4FEE5F002011742
:10008E00E9CDF9EAFEEBFFEF89F0A4FCE5F0CE89AD
:10009E00F0A42EFFE435F0CD89F0A42DFEE435F06A
:1000AE008067EF4E7005BD80D780C3EF8BF0A4AC98
:1000BE00F0EE8BF0A42CFCE435F0F8EF8AF0A42CD3
:1000CE00E5F038FCE433CB8DF0A42CFCE5F03BF8E6
:1000DE00EE8AF0A42CFCE5F038F8E433CF89F0A4D6
:1000EE002CFCE5F038CF3400CE89F0A42FFFE5F0DC
:1000FE003EFEE433C98DF0A42EFEE5F039CD8AF034
:10010E00A42FFFE5F03EFEE43DFD33D0E0FB5007AB
:10011E000BBB000F0201E8EC2CFCEF33FFEE33FEBD
:06012E00ED33FD0201C0EB
:1001340075F020800E75F010800575F0087D007E46
:10014400007F003392D530D5031206A8EC3340105B
:10015400EF33FFEE33FEED33FDEC33FCD5F0ED224F
:0E016400E5F0247EA2D513CC92E7CDCEFF228B
:10017200EDD2E7CD33EC3392D524814006E4FFFE85
:10018200FDFC22FCE4CFCECDCC24E0501174FF80E4
:10019200EDC3CC13CCCD13CDCE13CECF13CF047081
:0701A200F030D5DE0206A8D3
:1013AC00853841853942853A43EBC53BFBEAC53C60
:1013BC00FAE9C53DF97F09784412052DF60809E9CB
:0E13CC0070010ADFF4AB3BAA3CA93D02077496
:1001A900E9D2E7C933E833F892D5EDD2E7CD33EC9C
:0701B90033FC5002B2D52215
:1001C000EC30E7100FBF000C0EBE00080DBD0004A0
:1001D0000BEB6014A2D5EB13FCED92E7FD2274FF4C
:1001E000FCFDFEFF22E480F8A2D574FF13FC7D80A5
:0301F000E480EFB9
:10071800E5552441F8E6055522783E300702784130
:10072800E475F0011206B602052D2000EB7F2ED2EB
:10073800008018EF540F2490D43440D4FF30040BB9
:10074800EF24BFB41A0050032461FFE55660021578
:10075800560559E5597002055830070D783EE4757D
:10076800F0011206B6EF0205730213DA7403D2071A
:100778008003E4C207F5558B3E8A3F8940E4F5566D
:10078800F558F559E55660077F2012075380F5752F
:1007980057FFC201C200C202C203C205C206C20894
:1007A800120721FF700D3007057F00120764AF594B
:1007B800AE5822B4255FC2D5C204120721FF24D047
:1007C800B40A00501A75F00A785630D50508B6FFF5
:1007D8000106C6A426F620D5047002D20380D924C7
:1007E800CFB41A00EF5004C2E5D204020A51D20174
:1007F80080C6D20080C0D20280BCD2D580BAD205D1
:1008080080B47F201207532002077401B5560040B8
:10081800F1120718FF12075302078CD208D206807C
:1008280095120718FB120718FA120718F94A4B70A5
:100838000679487A0B7BFF20022EE556602A7E0057
:100848008E8275830012054660060EEE655770F0BD
:10085800C2D5EBC0E0EAC0E0E9C0E0EE120AB1D0D0
:10086800E0F9D0E0FAD0E0FB12052DFF60AAEBC05A
:10087800E0EAC0E0E9C0E0120753D0E02401F9D073
:10088800E03400FAD0E0FBE5570460DCD557D980A6
:1008980087D20280A2120A9460F7E5577001041209
:1008A80001F3A957600DE557600914F557120B3B82
:1008B800EF60F3EA30E702F404C3995077EAF425CD
:1008C800570430E701E404F557800D120A9460C11B
:1008D800EA055725571201F3EA7854F630E701E4A0
:1008E800255704D5570420050114120AB1E4C0E0C5
:1008F800120B3B7854E6601320E70714F612073B07
:10090800802204F6D0E014C0E07F0012073BE557D0
:1009180060071207321557800B300503120732D0D3
:10092800E002078CD0E00480C5120A9460A0E55765
:10093800041201F37854EAF6E55720050260010431
:050948002404120AB1B5
:10094D0074FF04C0E0120B3B12073BE55720050274
:10095D006003120732D0E0B557E87F45120745789E
:10096D0054E67F2B30E7047F2DF404C0E0120753CB
:10097D00D0E075F00A84C0F012073CD0E012073CBD
:10098D0002078C791080027908C206C2088008D24D
:10099D00D5790A8004790AC2D5E557047002F55756
:1009AD00E4FAFDFEFF120718FC7B08200113120765
:1009BD0018FD7B1030000A120718FE120718FF7B76
:1009CD0020EC3382D592D55013C3E43000069FFF3F
:1009DD00E49EFEE42001039DFDE49CFCE4CBF8C203
:1009ED0001EC700CCFCECDCCE824F8F870F3801765
:1009FD00C3EF33FFEE33FEED33FDEC33FCEB33FB96
:100A0D00994002FB0FD8E9EB300105F8D0E0C4485E
:100A1D00B201C0E00AEC4D4E4F78207B0070C2EA67
:100A2D00B5570040BCC0E0120AB3D0F0D0E02001B1
:100A3D0004C4C0E0C4B201C0F012073CD0F0D5F040
:100A4D00EB02078C1206C608295309905807FA4C79
:100A5D0007F64209944F099C44099C49080F430924
:100A6D00A25508D346093145089D470B685007FE2E
:100A7D002D08022E08252B0806230823200B512AAA
:100A8D0007BE480000081DE557B4FF037557061251
:100A9D000718FC120718FD120718FE120718FF7829
:100AAD004D020222790AA2D5200314300509B9108E
:100ABD00020404B9080104A2D52006025001042045
:100ACD0002689202B556005034C0E07F2030031901
:100ADD007F30A20272067205500F120B0AC202C2BB
:100AED0006C205C2087F30800F300503E9C0E01251
:100AFD000753300503D0E0F9D0E0B556CC300517DB
:100B0D007F30B9100C1207537F583004077F78805F
:100B1D0003B908031207533002057F2D0207537FD7
:100B2D00202008F87F2B2006F322920280CF7F0031
:100B3D00B407005005244DF8E6FF22286E756C6C45
:100B4D002900D2011207183001F8C201785630D5AC
:100B5D000108F60207BE2D50434958120718240309
:100B6D00B405004001E4900B6393120744743A12EC
:0A0B7D000744D203755604020990E4
:1001F300F920E72824F950037907E4F42402FB18D3
:10020300DBFDE624FB5014E9600DE4F618E604F682
:0F021300B40A08E4F6D9F57401F60A22C2D5221E
:10022200ED33EC3392D5FA602AB4FF33EDC2E77BAB
:10023200FF60067A027947E4227A02795020D504D7
:100242007A02794B224E614E002B494E46002D49CF
:100252004E4600E47A08F608DAFC7B00740722E8CE
:10026200C0E0ECC0E0EDC0E0EEC0E0EFC0E0EA7557
:10027200F010A4CAABF075F04DA42BFBE435F0FCF2
:10028200EA2410FAEB34C5FBEC34D9FCEDC2E7FFEB
:1002920075F056A4F42411C5F0F434C58FF0A42AE5
:1002A200E5F03BE43CF620E7141204EDD0E0FFD089
:1002B200E0FED0E0FDD0E0FC1204208014F4041231
:1002C20004EDD0E0FFD0E0FED0E0FDD0E0FC120073
:1002D2002ED0E0F8E6FAEDD2E7CD33EC332482FB00
:1002E200E4C3CF33CFCE33CECD33CD33DBF37B0775
:1002F20075F00A846004F6081B0AE5F0F6088FF030
:10030200740AA4FFACF08EF0740AA42CFEACF05078
:10031200010C8DF0740AA42CFDE435F0F608DBDE46
:030322007407223B
:100325000201DEE86480F8E933E83360110460F027
:10033500ED33EC337009E8FCE9FDEAFEEBFF22043E
:1003450060DED3EB9FEA9EE99DE8C2E78CF0C2F739
:1003550095F0400CE8CCF8E9CDF9EACEFAEBCFFB05
:100365001201A985D0F05804700320D5B3E80470B4
:10037500075002B2D50201E892D5EC0460F7E4CC4F
:10038500C0E0C398F8603B94186008400DD0E0FBCE
:100395000201C0E4FBFAC9FC8028E830E406E4C9A0
:1003A500FBE4CAFCE830E305E4C9CACBFCE8540722
:1003B5006010F8C3E913F9EA13FAEB13FBEC13FC2D
:1003C500D8F130F52FC3E49CFCEF9BFFEE9AFEEDD0
:1003D50099FDD0E0FBEF4E4D4C701222DB0302017C
:1003E500E5EC2CFCEF33FFEE33FEED33FDED30E7AE
:1003F500EB0201C0EF2BFFEE3AFEED39FDD0E0FB3D
:1004050050130BBB00030201E8ED13FDEE13FEEFE5
:0804150013FFEC13FC0201C00F
:10041D000201E8EC5D046005E8590470030201DE99
:10042D001201A9580460F6EC4860F2EC7004FDFE70
:10043D00FF22C860DB2481C85009C39860025006B2
:10044D000201E59850CAF582E9294B4A7005AB8245
:10045D000201D475F0007C1A7880C3EF9BEE9AED03
:10046D0099400DC3EF9BFFEE9AFEED99FDE842F02A
:10047D00DC23ACF0D0E0FFD0E0FED0E0FDAB82207D
:10048D00E7101BEB60BAEC2CFCEF33FFEE33FEED07
:10049D0033FD0201C0E803F830E705C0F075F00048
:1004AD00EF2FFFEE33FEED33FD40B830E7C280AAEB
:1004BD003F8000004120000042C80000447A000047
:1004CD00461C400047C35000497424004B189680C9
:1004DD004CBEBC205A0E1BCA6753C21C749DC5AEC0
:1004ED00FB60065407601C232312051BEB54386078
:1004FD000912050712051612002EECF8EDF9EEFAA9
:10050D00EFCB22EB12051680F1543803241C900416
:10051D00BDFE93FC0EEE93FD0EEE930ECE93FF22D9
:03000000020ED914
:0C0ED900787FE4F6D8FD7581BD020F2083
:10052D00BB010689828A83E0225002E722BBFE02CC
:09053D00E32289828A83E49322FF
:10054600BB010CE58229F582E5833AF583E022506A
:1005560006E92582F8E622BBFE06E92582F8E222B4
:0D056600E58229F582E5833AF583E49322CE
:10057300BB010689828A83F0225002F722BBFE0167
:02058300F32261
:10058500BC000BBE0029EF8DF084FFADF022E4CC5A
:10059500F875F008EF2FFFEE33FEEC33FCEE9DEC23
:1005A500984005FCEE9DFE0FD5F0E9E4CEFD22ED69
:1005B500F8F5F0EE8420D21CFEADF075F008EF2FB3
:1005C500FFED33FD4007985006D5F0F222C398FDA4
:0505D5000FD5F0EA2241
:1005DA0075F008758200EF2FFFEE33FECD33CDCCD8
:1005EA0033CCC58233C5829BED9AEC99E58298405B
:1005FA000CF582EE9BFEED9AFDEC99FC0FD5F0D638
:10060A00E4CEFBE4CDFAE4CCF9A88222B800C1B961
:10061A000059BA002DEC8BF084CFCECDFCE5F0CB9F
:10062A00F97818EF2FFFEE33FEED33FDEC33FCEBD8
:10063A0033FB10D703994004EB99FB0FD8E5E4F993
:10064A00FA227818EF2FFFEE33FEED33FDEC33FC80
:10065A00C933C910D7059BE99A4007EC9BFCE99A74
:10066A00F90FD8E0E4C9FAE4CCFB2275F010EF2FB9
:10067A00FFEE33FEED33FDCC33CCC833C810D707B9
:10068A009BEC9AE899400AED9BFDEC9AFCE899F8F4
:0E069A000FD5F0DAE4CDFBE4CCFAE4C8F92287
:0E06A800C3E49FFFE49EFEE49DFDE49CFC2263
:1006B600FAE6FB0808E6F925F0F618E6CA3AF62245
:1006C600D083D082F8E4937012740193700DA3A3C3
:1006D60093F8740193F5828883E4737402936860D7
:0606E600EFA3A3A380DFD7
:1013DA00EFB40A07740D1213E5740A309811A8992C
:1013EA00B8130CC2983098FDA899C298B811F63073
:0713FA0099FDC299F599224B
:1006EC00EF4E6012EF60010EEDBB010B89828A8325
:1006FC00F0A3DFFCDEFA2289F05007F709DFFCA932
:0C070C00F022BBFEFCF309DFFCA9F02288
:100EE5000212C4E493A3F8E493A34003F68001F24D
:100EF50008DFF48029E493A3F85407240CC8C3330E
:100F0500C4540F4420C8834004F456800146F6DFDC
:100F1500E4800B0102040810204080901305E47E54
:100F2500019360BCA3FF543F30E509541FFEE493D1
:100F3500A360010ECF54C025E060A840B8E493A398
:100F4500FAE493A3F8E493A3C8C582C8CAC583CAC3
:100F5500F0A3C8C582C8CAC583CADFE9DEE780BE7B
:0113410000AB
:00000001FF
